:100000000C942A000C940C020C944A020C94850265
:100010000C943C000C943C000C943C000C943C0070
:100020000C943C000C943C000C943C000C945C0739
:100030000C94EC060C94A4070C943C000C94DE0782
:100040000C9489000C943C000C943C000C943C00F3
:100050000C943C0011241FBECFE5D8E0DEBFCDBF1D
:1000600010E0A0E6B0E001C01D92AA39B107E1F7A7
:100070000E9415080C9451080C9400003E9A3F9879
:100080003D98309A319A329A35980895379A339A32
:100090000895379833980895882311F4389803C049
:1000A000813019F4389A399808C0823011F43898A0
:1000B00003C0833021F4389A399A3A9810C08430BA
:1000C00011F4389803C0853019F4389A399806C06D
:1000D000863011F4389801C0389A399A3A9A3B9888
:1000E0003C98369A80937A000895E2E6F0E0E80FB3
:1000F000F11D80810895E82FF0E0EE0FFF1FE65913
:10010000FF4F8081918108959093610080936000FA
:1001100008951F920F920FB60F9211242F933F93C1
:100120004F935F936F937F938F939F93AF93BF93FF
:10013000EF93FF9324B145B1E0917A00F0E0EE0F28
:10014000FF1FE659FF4F942F80E030E0822B932B66
:1001500091838083E0916000F09161000995FF91A7
:10016000EF91BF91AF919F918F917F916F915F912F
:100170004F913F912F910F900FBE0F901F901895A8
:100180003E9A3F983D98309A319A329A3598089520
:10019000379A089537980895369A0895882311F468
:1001A000389803C0813021F4389A39983A9819C0A8
:1001B000823011F4389803C0833019F4389A399A90
:1001C000F5CF843011F4389803C0853019F4389A8B
:1001D000399806C0863011F4389801C0389A399A97
:1001E0003A9A3B983C980895349BFECF349A85B157
:1001F0000895349BFECF349A24B145B1942F80E00A
:1002000030E0282B392BC90108958FEF8ABB9FEB73
:1002100097BB84BB8FE781BB0895582F613009F0ED
:1002200045C0883058F42BB381E090E0052E02C021
:10023000880F991F0A94E2F7282B2BBB852F885033
:10024000883070F448B3252F30E02850304081E0EA
:1002500090E002C0880F991F2A95E2F7482B48BB0F
:10026000852F8051883070F445B3252F30E0205120
:10027000304081E090E002C0880F991F2A95E2F794
:10028000482B45BB852F8851883008F059C042B3B0
:10029000252F30E02851304081E090E002C0880FE7
:1002A000991F2A95E2F7482B42BB0895662309F06F
:1002B00047C0883060F42BB381E090E0052E02C087
:1002C000880F991F0A94E2F7809582238BBB852FB4
:1002D0008850883078F448B3252F30E028503040DB
:1002E00081E090E002C0880F991F2A95E2F780957F
:1002F000842388BB852F8051883078F445B3252F1F
:1003000030E02051304081E090E002C0880F991F1A
:100310002A95E2F78095842385BB852F8851883004
:1003200078F442B3252F30E02851304081E090E04E
:1003300002C0880F991F2A95E2F78095842382BB1B
:100340000895582F883090F429B381E090E0052E6D
:1003500002C0880F991F0A94E2F730E082239323AA
:1003600002C0959587955A95E2F708958850883090
:1003700030F446B3252F30E02850304009C0852F97
:1003800080518830B0F443B3252F30E02051304005
:1003900081E090E0022E02C0880F991F0A94E2F7D4
:1003A00050E08423952302C0959587952A95E2F71E
:1003B0000895852F8851883010F080E0089540B36B
:1003C000252F30E02851304081E090E0022E02C01D
:1003D000880F991F0A94E2F750E08423952302C006
:1003E000959587952A95E2F7089585B7816085BF31
:1003F00085B78D7F85BF8BB78F7B8BBF08958BB7FC
:1004000080648BBF08958BB78F7B8BBF08959093CB
:100410007C0080937B0008951F920F920FB60F927D
:1004200011242F933F934F935F936F937F938F93F9
:100430009F93AF93BF93EF93FF93E0917B00F09175
:100440007C000995FF91EF91BF91AF919F918F91A2
:100450007F916F915F914F913F912F910F900FBEC0
:100460000F901F90189585B78B7F85BF85B7877FC5
:1004700085BF8BB78F778BBF08958BB780688BBF95
:1004800008958BB78F778BBF089590937E008093EC
:100490007D0008951F920F920FB60F9211242F9393
:1004A0003F934F935F936F937F938F939F93AF93FC
:1004B000BF93EF93FF93E0917D00F0917E0009954B
:1004C000FF91EF91BF91AF919F918F917F916F912C
:1004D0005F914F913F912F910F900FBE0F901F9002
:1004E000189584B78F7B84BF8BB78F7D8BBF0895A2
:1004F0008BB780628BBF08958BB78F7D8BBF0895BC
:100500009093800080937F0008951F920F920FB602
:100510000F9211242F933F934F935F936F937F9389
:100520008F939F93AF93BF93EF93FF93E0917F00DF
:10053000F09180000995FF91EF91BF91AF919F914C
:100540008F917F916F915F914F913F912F910F907C
:100550000FBE0F901F90189508958FB780688FBFBA
:1005600008958FB78F778FBF08950898099882E60E
:1005700080B986B7846086BF86B78E7F86BF0895B0
:10058000662311F4880F02C0880F816083B986B793
:100590008F7D86BF86B78F7E86BF86B7846086BF15
:1005A00086B7806886BF06B607FEFDCF089586B77A
:1005B000806286BF86B7846086BF86B7806886BF44
:1005C00006B607FEFDCF0895FF920F931F93082FE5
:1005D000162FF42E0E94D70281B1883029F5812F81
:1005E00060E00E94C00281B18831F1F403B986B79E
:1005F000846086BF86B7806886BF06B607FEFDCFDB
:1006000081B1883289F481E0F81619F40E94D7028A
:1006100009C086B7806186BF86B7846086BF86B70B
:10062000806886BF81E001C080E01F910F91FF903C
:10063000089586B78F7E86BF86B78F7D86BF86B7C3
:10064000806486BF86B7846086BF86B7806886BFB1
:1006500006B607FEFDCF86B7846086BF86B78F7E5D
:1006600086BF86B7806886BF06B607FEFDCF83B11A
:1006700008950F931F93182F042F81B1883019F01C
:1006800081B18031C1F5862F60E00E94C00281B146
:100690008431B1F081B1883399F081B1883159F555
:1006A00013B986B7846086BF86B7806886BF06B6F2
:1006B00007FEFDCF81B1803319F081B1883319F481
:1006C0000E94D70218C081B1883229F08EE161E022
:1006D0000E940D0110C0013019F40E94D70209C018
:1006E00086B7806186BF86B7846086BF86B780681C
:1006F00086BF81E001C080E01F910F9108951F9394
:10070000CF93DF93182F89E061E00E940D01612FE4
:10071000661F6627661F87E00E940D01C12FD0E08B
:10072000BE016074707056E0759567955A95E1F753
:1007300086E00E940D01BE016072707045E0759503
:1007400067954A95E1F785E00E940D01BE01607151
:10075000707034E0759567953A95E1F784E00E94F2
:100760000D018AE060E00E940D0189E061E00E94D5
:100770000D018BE061E00E940D0180EA9FE001978E
:10078000F1F78BE060E00E940D0188EE93E020E934
:1007900031E0F9013197F1F70197D9F7BE0168709F
:1007A000707023E0759567952A95E1F787E00E94C0
:1007B0000D01BE01647070707595679575956795AC
:1007C00086E00E940D01C270D070D595C79585E076
:1007D0006C2F0E940D01117084E0612F0E940D01A9
:1007E0008BE061E00E940D0180EA9FE00197F1F744
:1007F0008BE060E00E940D0188EE93E020E931E09B
:10080000F9013197F1F70197D9F7DF91CF911F9156
:100810000895EF92FF920F931F93CF93DF937C0184
:10082000C8EED3E000E010E0C701BE010E943D0821
:10083000862F805D0E947F03C701BE010E943D0894
:100840007C01CE016AE070E00E943D08EB010F5F81
:100850001F4F0430110541F7DF91CF911F910F9188
:10086000FF90EF9008951F93CF93DF93EC0110E07A
:1008700003C00E947F031F5FFE01E10FF11D808115
:100880008823B9F7DF91CF911F9108951F93CF93DC
:10089000DF93182F682F661F6627661F87E00E9468
:1008A0000D01C12FD0E0BE016074707086E07595B7
:1008B00067958A95E1F786E00E940D01BE0160729E
:1008C0007070B5E075956795BA95E1F785E00E947F
:1008D0000D01BE0160717070A4E075956795AA95D1
:1008E000E1F784E00E940D018AE060E00E940D01C2
:1008F00089E060E00E940D018BE061E00E940D0143
:1009000080EA9FE00197F1F78BE060E00E940D0123
:1009100028EE33E040E951E0CA010197F1F7215098
:100920003040D1F7BE0168707070F3E0759567953F
:10093000FA95E1F787E00E940D01BE0164707070C6
:10094000759567957595679586E00E940D01C27053
:10095000D070D595C79585E06C2F0E940D01117060
:1009600084E0612F0E940D018BE061E00E940D0187
:1009700085E08A95F1F78BE060E00E940D0180E947
:1009800091E00197F1F7DF91CF911F9108958CE1EC
:100990000E9446040895813019F4862F806804C0AF
:1009A000823011F4862F806C0E944604089581E005
:1009B0000E944604089583E00E94460480E29EE47B
:1009C0000197F1F783E00E94460480EE9BEA0197CD
:1009D000F1F783E00E94460482E00E94460488E02A
:1009E0000E94460480E00E9446048CE00E94460477
:1009F00081E00E94460488EE93E020E931E0F901AD
:100A00003197F1F70197D9F780E00E94460486E01C
:100A10000E94460408950895882311F48DE105C0CD
:100A2000813011F48EE101C08FE160E00E940D0180
:100A30000895823011F48FE105C0813011F48EE108
:100A400001C08DE161E00E940D0108958091810057
:100A50000895809381008430A1F1853050F4813075
:100A6000D9F08130B0F08230F1F0833009F066C007
:100A70001DC0873099F1883030F4853029F18630F7
:100A800009F05CC028C08830C1F1893009F056C037
:100A900045C084E160E002C084E161E00E940D0194
:100AA00085E160E009C084E160E002C084E161E0CA
:100AB0000E940D0185E161E00E940D0186E160E088
:100AC00017C084E160E002C084E161E00E940D0192
:100AD00085E160E009C084E160E002C084E161E09A
:100AE0000E940D0185E161E00E940D0186E161E057
:100AF0000E940D0187E160E00EC084E160E00E9489
:100B00000D0185E160E00E940D0186E160E00E9438
:100B10000D0187E161E00E940D01089584E161E02B
:100B20000E940D0185E160E00E940D0186E160E018
:100B30000E940D0187E161E00E940D0108958091FE
:100B400081008150809381008430A1F1853050F480
:100B50008130D9F08130B0F08230F1F0833009F08B
:100B600066C01DC0873099F1883030F4853029F196
:100B7000863009F05CC028C08830C1F1893009F0A6
:100B800056C045C084E160E002C084E161E00E949B
:100B90000D0185E160E009C084E160E002C084E10C
:100BA00061E00E940D0185E161E00E940D0186E196
:100BB00060E017C084E160E002C084E161E00E946F
:100BC0000D0185E160E009C084E160E002C084E1DC
:100BD00061E00E940D0185E161E00E940D0186E166
:100BE00061E00E940D0187E160E00EC084E160E0F9
:100BF0000E940D0185E160E00E940D0186E160E048
:100C00000E940D0187E161E00E940D01089584E1D9
:100C100061E00E940D0185E160E00E940D0186E126
:100C200060E00E940D0187E161E00E940D010895DE
:100C3000809181008F5F809381008A3010F0109244
:100C40008100809181008430A1F1853050F48130A1
:100C5000D9F08130B0F08230F1F0833009F066C015
:100C60001DC0873099F1883030F4853029F1863005
:100C700009F05CC028C08830C1F1893009F056C045
:100C800045C084E160E002C084E161E00E940D01A2
:100C900085E160E009C084E160E002C084E161E0D8
:100CA0000E940D0185E161E00E940D0186E160E096
:100CB00017C084E160E002C084E161E00E940D01A0
:100CC00085E160E009C084E160E002C084E161E0A8
:100CD0000E940D0185E161E00E940D0186E161E065
:100CE0000E940D0187E160E00EC084E160E00E9497
:100CF0000D0185E160E00E940D0186E160E00E9447
:100D00000D0187E161E00E940D01089584E161E039
:100D10000E940D0185E160E00E940D0186E160E026
:100D20000E940D0187E161E00E940D01089584E1B8
:100D300060E00E940D0185E160E00E940D0186E106
:100D400060E00E940D0187E160E00E940D010895BE
:100D5000813029F482E160E00E940D010895823023
:100D600021F483E160E00E940D010895813029F4AF
:100D700082E161E00E940D010895823021F483E157
:100D800061E00E940D0108951092810088E060E00A
:100D90000E940D0182E160E00E940D0183E160E0AC
:100DA0000E940D0108956D986C9A6B986B987098DD
:100DB000689A689A6E9A08958FB9779BFECF0895C6
:100DC0006F9A08956F98089583E890E0089590933E
:100DD0008B0080938A0008951F920F920FB60F9296
:100DE00011242F933F934F935F936F937F938F9330
:100DF0009F93AF93BF93EF93FF93909182009730AF
:100E000040F010928200E0918A00F0918B000995E9
:100E100009C08FB1E92FF0E0ED57FF4F80839F5F4E
:100E200090938200FF91EF91BF91AF919F918F912D
:100E30007F916F915F914F913F912F910F900FBED6
:100E40000F901F9018956D986C9A6B986B9870988E
:100E5000689A689A6E9A08958FB9779BFECF089525
:100E60001FB8779BFECF8FB108950895882311F4A2
:100E700088E103C0813021F489E10E94A101089535
:100E80008AE10E94A101089589B78E7F89BF88B742
:100E9000816088BF85E083BF089589B7816089BF7D
:100EA000089589B78E7F89BF089582BF0895909372
:100EB0008D0080938C0008951F920F920FB60F92B1
:100EC00011242F933F934F935F936F937F938F934F
:100ED0009F93AF93BF93EF93FF93E0918C00F091BA
:100EE0008D000995FF91EF91BF91AF919F918F91E7
:100EF0007F916F915F914F913F912F910F900FBE16
:100F00000F901F901895549A529886E880BD87E6F6
:100F100089B908958CB95E9BFECF5E9A08958FE8DB
:100F200090E00895579A089557980895569A08950D
:100F300056980895909399008093980008959093FF
:100F400097008093960008951F920F920FB60F920C
:100F500011242F933F934F935F936F937F938F93BE
:100F60009F93AF93BF93EF93FF9380918E00873051
:100F700040F010928E00E0919800F0919900099550
:100F80000CC0E0918E008CB1F0E0E157FF4F808300
:100F900080918E008F5F80938E00FF91EF91BF91C3
:100FA000AF919F918F917F916F915F914F913F9101
:100FB0002F910F900FBE0F901F9018951F920F92B8
:100FC0000FB60F9211242F933F934F935F936F931C
:100FD0007F938F939F93AF93BF93EF93FF93E09192
:100FE0009600F09197000995FF91EF91BF91AF9115
:100FF0009F918F917F916F915F914F913F912F9131
:101000000F900FBE0F901F901895549A529886E833
:1010100080BD87E689B908958CB95E9BFECF5E9A44
:1010200008955F9BFECF8CB10895CF93DF930E940C
:1010300005010E94B502C0E9D1E08FE10E94A10143
:101040008823D9F380E197E2FE013197F1F7019708
:10105000D9F781E461E041E00E94E40280E197E297
:10106000FE013197F1F70197D9F782E661E040E0A0
:101070000E9439038823C9F3E0CFAA1BBB1B51E1AF
:1010800007C0AA1FBB1FA617B70710F0A61BB70BF8
:10109000881F991F5A95A9F780959095BC01CD019D
:0610A0000895F894FFCF53
:00000001FF
